{
  "_format": "hh-sol-artifact-1",
  "contractName": "Storage",
  "sourceName": "contracts/Storage.sol",
  "abi": [
    {
      "inputs": [],
      "name": "retrieve",
      "outputs": [
        {
          "internalType": "uint256",
          "name": "",
          "type": "uint256"
        }
      ],
      "stateMutability": "view",
      "type": "function"
    },
    {
      "inputs": [
        {
          "internalType": "uint256",
          "name": "num",
          "type": "uint256"
        }
      ],
      "name": "save",
      "outputs": [],
      "stateMutability": "nonpayable",
      "type": "function"
    }
  ],
  "bytecode": "0x608060405234801561001057600080fd5b5061015c806100206000396000f3fe608060405234801561001057600080fd5b50600436106100365760003560e01c80631b8620271461003b5780632e64cec114610057575b600080fd5b610055600480360381019061005091906100cf565b610075565b005b61005f610081565b60405161006c919061010b565b60405180910390f35b61007e8161008a565b50565b60008054905090565b8060008190555050565b600080fd5b6000819050919050565b6100ac81610099565b81146100b757600080fd5b50565b6000813590506100c9816100a3565b92915050565b6000602082840312156100e5576100e4610094565b5b60006100f3848285016100ba565b91505092915050565b61010581610099565b82525050565b600060208201905061012060008301846100fc565b9291505056fea2646970667358221220047ebe8a927fa39d7da4fc922c270755b44278e966c8582e4522df2fa47df54c64736f6c63430008180033",
  "linkReferences": {},
  "deployedLinkReferences": {}
}